{
  "_format": "hh-sol-artifact-1",
  "contractName": "CoinManager",
  "sourceName": "contracts/coinmanager.sol",
  "abi": [
    {
      "inputs": [
        {
          "internalType": "address",
          "name": "contract_",
          "type": "address"
        }
      ],
      "stateMutability": "payable",
      "type": "constructor"
    },
    {
      "inputs": [],
      "name": "getTokenBalance",
      "outputs": [
        {
          "internalType": "uint256",
          "name": "",
          "type": "uint256"
        }
      ],
      "stateMutability": "view",
      "type": "function"
    },
    {
      "inputs": [],
      "name": "getUserBalance",
      "outputs": [
        {
          "internalType": "int256",
          "name": "",
          "type": "int256"
        }
      ],
      "stateMutability": "view",
      "type": "function"
    },
    {
      "inputs": [
        {
          "internalType": "uint256",
          "name": "amount_",
          "type": "uint256"
        }
      ],
      "name": "investTokens",
      "outputs": [],
      "stateMutability": "nonpayable",
      "type": "function"
    },
    {
      "inputs": [
        {
          "internalType": "address",
          "name": "",
          "type": "address"
        }
      ],
      "name": "investments",
      "outputs": [
        {
          "internalType": "int256",
          "name": "",
          "type": "int256"
        }
      ],
      "stateMutability": "view",
      "type": "function"
    }
  ],
  "bytecode": "0x60806040526040516108c33803806108c383398181016040528101906100259190610110565b33600060016101000a81548173ffffffffffffffffffffffffffffffffffffffff021916908373ffffffffffffffffffffffffffffffffffffffff16021790555080600160006101000a81548173ffffffffffffffffffffffffffffffffffffffff021916908373ffffffffffffffffffffffffffffffffffffffff1602179055505061013d565b600080fd5b600073ffffffffffffffffffffffffffffffffffffffff82169050919050565b60006100dd826100b2565b9050919050565b6100ed816100d2565b81146100f857600080fd5b50565b60008151905061010a816100e4565b92915050565b600060208284031215610126576101256100ad565b5b6000610134848285016100fb565b91505092915050565b6107778061014c6000396000f3fe608060405234801561001057600080fd5b506004361061004c5760003560e01c806382b2e2571461005157806396b988621461006f578063b7013dc11461009f578063deca2751146100bd575b600080fd5b6100596100d9565b604051610066919061048e565b60405180910390f35b6100896004803603810190610084919061050c565b61017c565b6040516100969190610552565b60405180910390f35b6100a7610194565b6040516100b49190610552565b60405180910390f35b6100d760048036038101906100d29190610599565b6101db565b005b6000600160009054906101000a900473ffffffffffffffffffffffffffffffffffffffff1673ffffffffffffffffffffffffffffffffffffffff166370a08231306040518263ffffffff1660e01b815260040161013691906105d5565b602060405180830381865afa158015610153573d6000803e3d6000fd5b505050506040513d601f19601f820116820180604052508101906101779190610605565b905090565b60026020528060005260406000206000915090505481565b6000600260003373ffffffffffffffffffffffffffffffffffffffff1673ffffffffffffffffffffffffffffffffffffffff16815260200190815260200160002054905090565b6101e3610293565b600160009054906101000a900473ffffffffffffffffffffffffffffffffffffffff1673ffffffffffffffffffffffffffffffffffffffff166323b872dd3330846040518463ffffffff1660e01b815260040161024293929190610632565b6020604051808303816000875af1158015610261573d6000803e3d6000fd5b505050506040513d601f19601f8201168201806040525081019061028591906106a1565b50610290338261038b565b50565b60001515600360003373ffffffffffffffffffffffffffffffffffffffff1673ffffffffffffffffffffffffffffffffffffffff16815260200190815260200160002060009054906101000a900460ff16151503610389576001600360003373ffffffffffffffffffffffffffffffffffffffff1673ffffffffffffffffffffffffffffffffffffffff16815260200190815260200160002060006101000a81548160ff0219169083151502179055506000600260003373ffffffffffffffffffffffffffffffffffffffff1673ffffffffffffffffffffffffffffffffffffffff168152602001908152602001600020819055505b565b600081600260008573ffffffffffffffffffffffffffffffffffffffff1673ffffffffffffffffffffffffffffffffffffffff168152602001908152602001600020546103d891906106fd565b12156103e357600080fd5b80600260008473ffffffffffffffffffffffffffffffffffffffff1673ffffffffffffffffffffffffffffffffffffffff1681526020019081526020016000205461042e91906106fd565b600260008473ffffffffffffffffffffffffffffffffffffffff1673ffffffffffffffffffffffffffffffffffffffff168152602001908152602001600020819055505050565b6000819050919050565b61048881610475565b82525050565b60006020820190506104a3600083018461047f565b92915050565b600080fd5b600073ffffffffffffffffffffffffffffffffffffffff82169050919050565b60006104d9826104ae565b9050919050565b6104e9816104ce565b81146104f457600080fd5b50565b600081359050610506816104e0565b92915050565b600060208284031215610522576105216104a9565b5b6000610530848285016104f7565b91505092915050565b6000819050919050565b61054c81610539565b82525050565b60006020820190506105676000830184610543565b92915050565b61057681610475565b811461058157600080fd5b50565b6000813590506105938161056d565b92915050565b6000602082840312156105af576105ae6104a9565b5b60006105bd84828501610584565b91505092915050565b6105cf816104ce565b82525050565b60006020820190506105ea60008301846105c6565b92915050565b6000815190506105ff8161056d565b92915050565b60006020828403121561061b5761061a6104a9565b5b6000610629848285016105f0565b91505092915050565b600060608201905061064760008301866105c6565b61065460208301856105c6565b610661604083018461047f565b949350505050565b60008115159050919050565b61067e81610669565b811461068957600080fd5b50565b60008151905061069b81610675565b92915050565b6000602082840312156106b7576106b66104a9565b5b60006106c58482850161068c565b91505092915050565b7f4e487b7100000000000000000000000000000000000000000000000000000000600052601160045260246000fd5b600061070882610539565b915061071383610539565b92508282019050828112156000831216838212600084121516171561073b5761073a6106ce565b5b9291505056fea2646970667358221220d80292e4c7ec8bdfa09b38e7b171d0c19fa60b0a484ad50af8ce7a782a2516b564736f6c63430008110033",
  "linkReferences": {},
  "deployedLinkReferences": {}
}